{
  "_format": "hh-sol-artifact-1",
  "contractName": "Minter",
  "sourceName": "contracts/Minter.sol",
  "abi": [
    {
      "inputs": [],
      "stateMutability": "nonpayable",
      "type": "constructor"
    },
    {
      "anonymous": false,
      "inputs": [
        {
          "indexed": true,
          "internalType": "address",
          "name": "owner",
          "type": "address"
        },
        {
          "indexed": true,
          "internalType": "address",
          "name": "approved",
          "type": "address"
        },
        {
          "indexed": true,
          "internalType": "uint256",
          "name": "tokenId",
          "type": "uint256"
        }
      ],
      "name": "Approval",
      "type": "event"
    },
    {
      "anonymous": false,
      "inputs": [
        {
          "indexed": true,
          "internalType": "address",
          "name": "owner",
          "type": "address"
        },
        {
          "indexed": true,
          "internalType": "address",
          "name": "operator",
          "type": "address"
        },
        {
          "indexed": false,
          "internalType": "bool",
          "name": "approved",
          "type": "bool"
        }
      ],
      "name": "ApprovalForAll",
      "type": "event"
    },
    {
      "anonymous": false,
      "inputs": [
        {
          "indexed": false,
          "internalType": "uint256",
          "name": "_fromTokenId",
          "type": "uint256"
        },
        {
          "indexed": false,
          "internalType": "uint256",
          "name": "_toTokenId",
          "type": "uint256"
        }
      ],
      "name": "BatchMetadataUpdate",
      "type": "event"
    },
    {
      "anonymous": false,
      "inputs": [
        {
          "indexed": false,
          "internalType": "uint256",
          "name": "_tokenId",
          "type": "uint256"
        }
      ],
      "name": "MetadataUpdate",
      "type": "event"
    },
    {
      "anonymous": false,
      "inputs": [
        {
          "indexed": false,
          "internalType": "uint256",
          "name": "amount",
          "type": "uint256"
        }
      ],
      "name": "ReceivedEth",
      "type": "event"
    },
    {
      "anonymous": false,
      "inputs": [
        {
          "indexed": true,
          "internalType": "address",
          "name": "from",
          "type": "address"
        },
        {
          "indexed": true,
          "internalType": "address",
          "name": "to",
          "type": "address"
        },
        {
          "indexed": true,
          "internalType": "uint256",
          "name": "tokenId",
          "type": "uint256"
        }
      ],
      "name": "Transfer",
      "type": "event"
    },
    {
      "anonymous": false,
      "inputs": [
        {
          "indexed": false,
          "internalType": "uint256",
          "name": "tokenId",
          "type": "uint256"
        },
        {
          "indexed": false,
          "internalType": "address",
          "name": "owner",
          "type": "address"
        },
        {
          "indexed": false,
          "internalType": "uint256",
          "name": "dateCreated",
          "type": "uint256"
        }
      ],
      "name": "claimed",
      "type": "event"
    },
    {
      "stateMutability": "payable",
      "type": "fallback"
    },
    {
      "inputs": [],
      "name": "ClaimNFT",
      "outputs": [
        {
          "internalType": "uint256",
          "name": "",
          "type": "uint256"
        }
      ],
      "stateMutability": "payable",
      "type": "function"
    },
    {
      "inputs": [],
      "name": "_tokenIds",
      "outputs": [
        {
          "internalType": "uint256",
          "name": "_value",
          "type": "uint256"
        }
      ],
      "stateMutability": "view",
      "type": "function"
    },
    {
      "inputs": [
        {
          "internalType": "address",
          "name": "to",
          "type": "address"
        },
        {
          "internalType": "uint256",
          "name": "tokenId",
          "type": "uint256"
        }
      ],
      "name": "approve",
      "outputs": [],
      "stateMutability": "nonpayable",
      "type": "function"
    },
    {
      "inputs": [
        {
          "internalType": "address",
          "name": "owner",
          "type": "address"
        }
      ],
      "name": "balanceOf",
      "outputs": [
        {
          "internalType": "uint256",
          "name": "",
          "type": "uint256"
        }
      ],
      "stateMutability": "view",
      "type": "function"
    },
    {
      "inputs": [
        {
          "internalType": "uint256",
          "name": "tokenId",
          "type": "uint256"
        }
      ],
      "name": "getApproved",
      "outputs": [
        {
          "internalType": "address",
          "name": "",
          "type": "address"
        }
      ],
      "stateMutability": "view",
      "type": "function"
    },
    {
      "inputs": [
        {
          "internalType": "address",
          "name": "owner",
          "type": "address"
        },
        {
          "internalType": "address",
          "name": "operator",
          "type": "address"
        }
      ],
      "name": "isApprovedForAll",
      "outputs": [
        {
          "internalType": "bool",
          "name": "",
          "type": "bool"
        }
      ],
      "stateMutability": "view",
      "type": "function"
    },
    {
      "inputs": [],
      "name": "name",
      "outputs": [
        {
          "internalType": "string",
          "name": "",
          "type": "string"
        }
      ],
      "stateMutability": "view",
      "type": "function"
    },
    {
      "inputs": [
        {
          "internalType": "uint256",
          "name": "tokenId",
          "type": "uint256"
        }
      ],
      "name": "ownerOf",
      "outputs": [
        {
          "internalType": "address",
          "name": "",
          "type": "address"
        }
      ],
      "stateMutability": "view",
      "type": "function"
    },
    {
      "inputs": [
        {
          "internalType": "address",
          "name": "from",
          "type": "address"
        },
        {
          "internalType": "address",
          "name": "to",
          "type": "address"
        },
        {
          "internalType": "uint256",
          "name": "tokenId",
          "type": "uint256"
        }
      ],
      "name": "safeTransferFrom",
      "outputs": [],
      "stateMutability": "nonpayable",
      "type": "function"
    },
    {
      "inputs": [
        {
          "internalType": "address",
          "name": "from",
          "type": "address"
        },
        {
          "internalType": "address",
          "name": "to",
          "type": "address"
        },
        {
          "internalType": "uint256",
          "name": "tokenId",
          "type": "uint256"
        },
        {
          "internalType": "bytes",
          "name": "data",
          "type": "bytes"
        }
      ],
      "name": "safeTransferFrom",
      "outputs": [],
      "stateMutability": "nonpayable",
      "type": "function"
    },
    {
      "inputs": [
        {
          "internalType": "address",
          "name": "operator",
          "type": "address"
        },
        {
          "internalType": "bool",
          "name": "approved",
          "type": "bool"
        }
      ],
      "name": "setApprovalForAll",
      "outputs": [],
      "stateMutability": "nonpayable",
      "type": "function"
    },
    {
      "inputs": [
        {
          "internalType": "bytes4",
          "name": "interfaceId",
          "type": "bytes4"
        }
      ],
      "name": "supportsInterface",
      "outputs": [
        {
          "internalType": "bool",
          "name": "",
          "type": "bool"
        }
      ],
      "stateMutability": "view",
      "type": "function"
    },
    {
      "inputs": [],
      "name": "symbol",
      "outputs": [
        {
          "internalType": "string",
          "name": "",
          "type": "string"
        }
      ],
      "stateMutability": "view",
      "type": "function"
    },
    {
      "inputs": [
        {
          "internalType": "uint256",
          "name": "tokenId",
          "type": "uint256"
        }
      ],
      "name": "tokenURI",
      "outputs": [
        {
          "internalType": "string",
          "name": "",
          "type": "string"
        }
      ],
      "stateMutability": "view",
      "type": "function"
    },
    {
      "inputs": [
        {
          "internalType": "address",
          "name": "from",
          "type": "address"
        },
        {
          "internalType": "address",
          "name": "to",
          "type": "address"
        },
        {
          "internalType": "uint256",
          "name": "tokenId",
          "type": "uint256"
        }
      ],
      "name": "transferFrom",
      "outputs": [],
      "stateMutability": "nonpayable",
      "type": "function"
    },
    {
      "inputs": [
        {
          "internalType": "uint256",
          "name": "value",
          "type": "uint256"
        }
      ],
      "name": "withdraw",
      "outputs": [],
      "stateMutability": "nonpayable",
      "type": "function"
    },
    {
      "stateMutability": "payable",
      "type": "receive"
    }
  ],
  "bytecode": "0x60806040523480156200001157600080fd5b506040518060400160405280600881526020017f53686565725061790000000000000000000000000000000000000000000000008152506040518060400160405280600481526020017f535041590000000000000000000000000000000000000000000000000000000081525081600090816200008f919062000365565b508060019081620000a1919062000365565b50505033600860006101000a81548173ffffffffffffffffffffffffffffffffffffffff021916908373ffffffffffffffffffffffffffffffffffffffff1602179055506200044c565b600081519050919050565b7f4e487b7100000000000000000000000000000000000000000000000000000000600052604160045260246000fd5b7f4e487b7100000000000000000000000000000000000000000000000000000000600052602260045260246000fd5b600060028204905060018216806200016d57607f821691505b60208210810362000183576200018262000125565b5b50919050565b60008190508160005260206000209050919050565b60006020601f8301049050919050565b600082821b905092915050565b600060088302620001ed7fffffffffffffffffffffffffffffffffffffffffffffffffffffffffffffffff82620001ae565b620001f98683620001ae565b95508019841693508086168417925050509392505050565b6000819050919050565b6000819050919050565b600062000246620002406200023a8462000211565b6200021b565b62000211565b9050919050565b6000819050919050565b620002628362000225565b6200027a62000271826200024d565b848454620001bb565b825550505050565b600090565b6200029162000282565b6200029e81848462000257565b505050565b5b81811015620002c657620002ba60008262000287565b600181019050620002a4565b5050565b601f8211156200031557620002df8162000189565b620002ea846200019e565b81016020851015620002fa578190505b6200031262000309856200019e565b830182620002a3565b50505b505050565b600082821c905092915050565b60006200033a600019846008026200031a565b1980831691505092915050565b600062000355838362000327565b9150826002028217905092915050565b6200037082620000eb565b67ffffffffffffffff8111156200038c576200038b620000f6565b5b62000398825462000154565b620003a5828285620002ca565b600060209050601f831160018114620003dd5760008415620003c8578287015190505b620003d4858262000347565b86555062000444565b601f198416620003ed8662000189565b60005b828110156200041757848901518255600182019150602085019450602081019050620003f0565b8683101562000437578489015162000433601f89168262000327565b8355505b6001600288020188555050505b505050505050565b61318a806200045c6000396000f3fe6080604052600436106100f75760003560e01c806370a082311161008a578063b88d4fde11610059578063b88d4fde146103b0578063c87b56dd146103d9578063d2f4e68614610416578063e985e9c51461043457610135565b806370a08231146102f457806395d89b4114610331578063a22cb4651461035c578063aa46a4001461038557610135565b806323b872dd116100c657806323b872dd1461023c5780632e1a7d4d1461026557806342842e0e1461028e5780636352211e146102b757610135565b806301ffc9a71461016e57806306fdde03146101ab578063081812fc146101d6578063095ea7b31461021357610135565b36610135577feac3bc00eb8bc276e61d902ebf696db93b7ee1cf44f1b16d6da1111427825e9e3460405161012b9190611df6565b60405180910390a1005b7feac3bc00eb8bc276e61d902ebf696db93b7ee1cf44f1b16d6da1111427825e9e346040516101649190611df6565b60405180910390a1005b34801561017a57600080fd5b5061019560048036038101906101909190611e7d565b610471565b6040516101a29190611ec5565b60405180910390f35b3480156101b757600080fd5b506101c06104d2565b6040516101cd9190611f70565b60405180910390f35b3480156101e257600080fd5b506101fd60048036038101906101f89190611fbe565b610564565b60405161020a919061202c565b60405180910390f35b34801561021f57600080fd5b5061023a60048036038101906102359190612073565b6105aa565b005b34801561024857600080fd5b50610263600480360381019061025e91906120b3565b6106c1565b005b34801561027157600080fd5b5061028c60048036038101906102879190611fbe565b610721565b005b34801561029a57600080fd5b506102b560048036038101906102b091906120b3565b6108c6565b005b3480156102c357600080fd5b506102de60048036038101906102d99190611fbe565b6108e6565b6040516102eb919061202c565b60405180910390f35b34801561030057600080fd5b5061031b60048036038101906103169190612106565b61096c565b6040516103289190611df6565b60405180910390f35b34801561033d57600080fd5b50610346610a23565b6040516103539190611f70565b60405180910390f35b34801561036857600080fd5b50610383600480360381019061037e919061215f565b610ab5565b005b34801561039157600080fd5b5061039a610acb565b6040516103a79190611df6565b60405180910390f35b3480156103bc57600080fd5b506103d760048036038101906103d291906122d4565b610ad7565b005b3480156103e557600080fd5b5061040060048036038101906103fb9190611fbe565b610b39565b60405161040d9190611f70565b60405180910390f35b61041e610c4b565b60405161042b9190611df6565b60405180910390f35b34801561044057600080fd5b5061045b60048036038101906104569190612357565b610de2565b6040516104689190611ec5565b60405180910390f35b6000634906490660e01b7bffffffffffffffffffffffffffffffffffffffffffffffffffffffff1916827bffffffffffffffffffffffffffffffffffffffffffffffffffffffff191614806104cb57506104ca82610e76565b5b9050919050565b6060600080546104e1906123c6565b80601f016020809104026020016040519081016040528092919081815260200182805461050d906123c6565b801561055a5780601f1061052f5761010080835404028352916020019161055a565b820191906000526020600020905b81548152906001019060200180831161053d57829003601f168201915b5050505050905090565b600061056f82610f58565b6004600083815260200190815260200160002060009054906101000a900473ffffffffffffffffffffffffffffffffffffffff169050919050565b60006105b5826108e6565b90508073ffffffffffffffffffffffffffffffffffffffff168373ffffffffffffffffffffffffffffffffffffffff1603610625576040517f08c379a000000000000000000000000000000000000000000000000000000000815260040161061c90612469565b60405180910390fd5b8073ffffffffffffffffffffffffffffffffffffffff16610644610fa3565b73ffffffffffffffffffffffffffffffffffffffff16148061067357506106728161066d610fa3565b610de2565b5b6106b2576040517f08c379a00000000000000000000000000000000000000000000000000000000081526004016106a9906124fb565b60405180910390fd5b6106bc8383610fab565b505050565b6106d26106cc610fa3565b82611064565b610711576040517f08c379a00000000000000000000000000000000000000000000000000000000081526004016107089061258d565b60405180910390fd5b61071c8383836110f9565b505050565b600860009054906101000a900473ffffffffffffffffffffffffffffffffffffffff1673ffffffffffffffffffffffffffffffffffffffff163373ffffffffffffffffffffffffffffffffffffffff16146107b1576040517f08c379a00000000000000000000000000000000000000000000000000000000081526004016107a8906125f9565b60405180910390fd5b478111156107f4576040517f08c379a00000000000000000000000000000000000000000000000000000000081526004016107eb90612665565b60405180910390fd5b6000600860009054906101000a900473ffffffffffffffffffffffffffffffffffffffff1673ffffffffffffffffffffffffffffffffffffffff168260405161083c906126b6565b60006040518083038185875af1925050503d8060008114610879576040519150601f19603f3d011682016040523d82523d6000602084013e61087e565b606091505b50509050806108c2576040517f08c379a00000000000000000000000000000000000000000000000000000000081526004016108b990612717565b60405180910390fd5b5050565b6108e183838360405180602001604052806000815250610ad7565b505050565b6000806108f2836113f2565b9050600073ffffffffffffffffffffffffffffffffffffffff168173ffffffffffffffffffffffffffffffffffffffff1603610963576040517f08c379a000000000000000000000000000000000000000000000000000000000815260040161095a90612783565b60405180910390fd5b80915050919050565b60008073ffffffffffffffffffffffffffffffffffffffff168273ffffffffffffffffffffffffffffffffffffffff16036109dc576040517f08c379a00000000000000000000000000000000000000000000000000000000081526004016109d390612815565b60405180910390fd5b600360008373ffffffffffffffffffffffffffffffffffffffff1673ffffffffffffffffffffffffffffffffffffffff168152602001908152602001600020549050919050565b606060018054610a32906123c6565b80601f0160208091040260200160405190810160405280929190818152602001828054610a5e906123c6565b8015610aab5780601f10610a8057610100808354040283529160200191610aab565b820191906000526020600020905b815481529060010190602001808311610a8e57829003601f168201915b5050505050905090565b610ac7610ac0610fa3565b838361142f565b5050565b60078060000154905081565b610ae8610ae2610fa3565b83611064565b610b27576040517f08c379a0000000000000000000000000000000000000000000000000000000008152600401610b1e9061258d565b60405180910390fd5b610b338484848461159b565b50505050565b6060610b4482610f58565b6000600660008481526020019081526020016000208054610b64906123c6565b80601f0160208091040260200160405190810160405280929190818152602001828054610b90906123c6565b8015610bdd5780601f10610bb257610100808354040283529160200191610bdd565b820191906000526020600020905b815481529060010190602001808311610bc057829003601f168201915b505050505090506000610bee6115f7565b90506000815103610c03578192505050610c46565b600082511115610c38578082604051602001610c20929190612871565b60405160208183030381529060405292505050610c46565b610c418461160e565b925050505b919050565b600060013073ffffffffffffffffffffffffffffffffffffffff166370a08231336040518263ffffffff1660e01b8152600401610c88919061202c565b602060405180830381865afa158015610ca5573d6000803e3d6000fd5b505050506040513d601f19601f82011682018060405250810190610cc991906128aa565b10610d09576040517f08c379a0000000000000000000000000000000000000000000000000000000008152600401610d0090612923565b60405180910390fd5b612710610d166007611676565b10610d56576040517f08c379a0000000000000000000000000000000000000000000000000000000008152600401610d4d9061298f565b60405180910390fd5b610d606007611684565b6000610d6c6007611676565b90506000604051806080016040528060528152602001613103605291399050610d95338361169a565b610d9f82826118b7565b7f3f20c8822710348af603896bf65b451408c5130324f692c6f602e9b28d2bfd69823342604051610dd2939291906129af565b60405180910390a1819250505090565b6000600560008473ffffffffffffffffffffffffffffffffffffffff1673ffffffffffffffffffffffffffffffffffffffff16815260200190815260200160002060008373ffffffffffffffffffffffffffffffffffffffff1673ffffffffffffffffffffffffffffffffffffffff16815260200190815260200160002060009054906101000a900460ff16905092915050565b60007f80ac58cd000000000000000000000000000000000000000000000000000000007bffffffffffffffffffffffffffffffffffffffffffffffffffffffff1916827bffffffffffffffffffffffffffffffffffffffffffffffffffffffff19161480610f4157507f5b5e139f000000000000000000000000000000000000000000000000000000007bffffffffffffffffffffffffffffffffffffffffffffffffffffffff1916827bffffffffffffffffffffffffffffffffffffffffffffffffffffffff1916145b80610f515750610f508261195b565b5b9050919050565b610f61816119c5565b610fa0576040517f08c379a0000000000000000000000000000000000000000000000000000000008152600401610f9790612783565b60405180910390fd5b50565b600033905090565b816004600083815260200190815260200160002060006101000a81548173ffffffffffffffffffffffffffffffffffffffff021916908373ffffffffffffffffffffffffffffffffffffffff160217905550808273ffffffffffffffffffffffffffffffffffffffff1661101e836108e6565b73ffffffffffffffffffffffffffffffffffffffff167f8c5be1e5ebec7d5bd14f71427d1e84f3dd0314c0f7b2291e5b200ac8c7c3b92560405160405180910390a45050565b600080611070836108e6565b90508073ffffffffffffffffffffffffffffffffffffffff168473ffffffffffffffffffffffffffffffffffffffff1614806110b257506110b18185610de2565b5b806110f057508373ffffffffffffffffffffffffffffffffffffffff166110d884610564565b73ffffffffffffffffffffffffffffffffffffffff16145b91505092915050565b8273ffffffffffffffffffffffffffffffffffffffff16611119826108e6565b73ffffffffffffffffffffffffffffffffffffffff161461116f576040517f08c379a000000000000000000000000000000000000000000000000000000000815260040161116690612a58565b60405180910390fd5b600073ffffffffffffffffffffffffffffffffffffffff168273ffffffffffffffffffffffffffffffffffffffff16036111de576040517f08c379a00000000000000000000000000000000000000000000000000000000081526004016111d590612aea565b60405180910390fd5b6111eb8383836001611a06565b8273ffffffffffffffffffffffffffffffffffffffff1661120b826108e6565b73ffffffffffffffffffffffffffffffffffffffff1614611261576040517f08c379a000000000000000000000000000000000000000000000000000000000815260040161125890612a58565b60405180910390fd5b6004600082815260200190815260200160002060006101000a81549073ffffffffffffffffffffffffffffffffffffffff02191690556001600360008573ffffffffffffffffffffffffffffffffffffffff1673ffffffffffffffffffffffffffffffffffffffff168152602001908152602001600020600082825403925050819055506001600360008473ffffffffffffffffffffffffffffffffffffffff1673ffffffffffffffffffffffffffffffffffffffff16815260200190815260200160002060008282540192505081905550816002600083815260200190815260200160002060006101000a81548173ffffffffffffffffffffffffffffffffffffffff021916908373ffffffffffffffffffffffffffffffffffffffff160217905550808273ffffffffffffffffffffffffffffffffffffffff168473ffffffffffffffffffffffffffffffffffffffff167fddf252ad1be2c89b69c2b068fc378daa952ba7f163c4a11628f55a4df523b3ef60405160405180910390a46113ed8383836001611a0c565b505050565b60006002600083815260200190815260200160002060009054906101000a900473ffffffffffffffffffffffffffffffffffffffff169050919050565b8173ffffffffffffffffffffffffffffffffffffffff168373ffffffffffffffffffffffffffffffffffffffff160361149d576040517f08c379a000000000000000000000000000000000000000000000000000000000815260040161149490612b56565b60405180910390fd5b80600560008573ffffffffffffffffffffffffffffffffffffffff1673ffffffffffffffffffffffffffffffffffffffff16815260200190815260200160002060008473ffffffffffffffffffffffffffffffffffffffff1673ffffffffffffffffffffffffffffffffffffffff16815260200190815260200160002060006101000a81548160ff0219169083151502179055508173ffffffffffffffffffffffffffffffffffffffff168373ffffffffffffffffffffffffffffffffffffffff167f17307eab39ab6107e8899845ad3d59bd9653f200f220920489ca2b5937696c318360405161158e9190611ec5565b60405180910390a3505050565b6115a68484846110f9565b6115b284848484611a12565b6115f1576040517f08c379a00000000000000000000000000000000000000000000000000000000081526004016115e890612be8565b60405180910390fd5b50505050565b606060405180602001604052806000815250905090565b606061161982610f58565b60006116236115f7565b90506000815111611643576040518060200160405280600081525061166e565b8061164d84611b99565b60405160200161165e929190612871565b6040516020818303038152906040525b915050919050565b600081600001549050919050565b6001816000016000828254019250508190555050565b600073ffffffffffffffffffffffffffffffffffffffff168273ffffffffffffffffffffffffffffffffffffffff1603611709576040517f08c379a000000000000000000000000000000000000000000000000000000000815260040161170090612c54565b60405180910390fd5b611712816119c5565b15611752576040517f08c379a000000000000000000000000000000000000000000000000000000000815260040161174990612cc0565b60405180910390fd5b611760600083836001611a06565b611769816119c5565b156117a9576040517f08c379a00000000000000000000000000000000000000000000000000000000081526004016117a090612cc0565b60405180910390fd5b6001600360008473ffffffffffffffffffffffffffffffffffffffff1673ffffffffffffffffffffffffffffffffffffffff16815260200190815260200160002060008282540192505081905550816002600083815260200190815260200160002060006101000a81548173ffffffffffffffffffffffffffffffffffffffff021916908373ffffffffffffffffffffffffffffffffffffffff160217905550808273ffffffffffffffffffffffffffffffffffffffff16600073ffffffffffffffffffffffffffffffffffffffff167fddf252ad1be2c89b69c2b068fc378daa952ba7f163c4a11628f55a4df523b3ef60405160405180910390a46118b3600083836001611a0c565b5050565b6118c0826119c5565b6118ff576040517f08c379a00000000000000000000000000000000000000000000000000000000081526004016118f690612d52565b60405180910390fd5b8060066000848152602001908152602001600020908161191f9190612f1e565b507ff8e1a15aba9398e019f0b49df1a4fde98ee17ae345cb5f6b5e2c27f5033e8ce78260405161194f9190611df6565b60405180910390a15050565b60007f01ffc9a7000000000000000000000000000000000000000000000000000000007bffffffffffffffffffffffffffffffffffffffffffffffffffffffff1916827bffffffffffffffffffffffffffffffffffffffffffffffffffffffff1916149050919050565b60008073ffffffffffffffffffffffffffffffffffffffff166119e7836113f2565b73ffffffffffffffffffffffffffffffffffffffff1614159050919050565b50505050565b50505050565b6000611a338473ffffffffffffffffffffffffffffffffffffffff16611c67565b15611b8c578373ffffffffffffffffffffffffffffffffffffffff1663150b7a02611a5c610fa3565b8786866040518563ffffffff1660e01b8152600401611a7e9493929190613045565b6020604051808303816000875af1925050508015611aba57506040513d601f19601f82011682018060405250810190611ab791906130a6565b60015b611b3c573d8060008114611aea576040519150601f19603f3d011682016040523d82523d6000602084013e611aef565b606091505b506000815103611b34576040517f08c379a0000000000000000000000000000000000000000000000000000000008152600401611b2b90612be8565b60405180910390fd5b805181602001fd5b63150b7a0260e01b7bffffffffffffffffffffffffffffffffffffffffffffffffffffffff1916817bffffffffffffffffffffffffffffffffffffffffffffffffffffffff191614915050611b91565b600190505b949350505050565b606060006001611ba884611c8a565b01905060008167ffffffffffffffff811115611bc757611bc66121a9565b5b6040519080825280601f01601f191660200182016040528015611bf95781602001600182028036833780820191505090505b509050600082602001820190505b600115611c5c578080600190039150507f3031323334353637383961626364656600000000000000000000000000000000600a86061a8153600a8581611c5057611c4f6130d3565b5b04945060008503611c07575b819350505050919050565b6000808273ffffffffffffffffffffffffffffffffffffffff163b119050919050565b600080600090507a184f03e93ff9f4daa797ed6e38ed64bf6a1f0100000000000000008310611ce8577a184f03e93ff9f4daa797ed6e38ed64bf6a1f0100000000000000008381611cde57611cdd6130d3565b5b0492506040810190505b6d04ee2d6d415b85acef81000000008310611d25576d04ee2d6d415b85acef81000000008381611d1b57611d1a6130d3565b5b0492506020810190505b662386f26fc100008310611d5457662386f26fc100008381611d4a57611d496130d3565b5b0492506010810190505b6305f5e1008310611d7d576305f5e1008381611d7357611d726130d3565b5b0492506008810190505b6127108310611da2576127108381611d9857611d976130d3565b5b0492506004810190505b60648310611dc55760648381611dbb57611dba6130d3565b5b0492506002810190505b600a8310611dd4576001810190505b80915050919050565b6000819050919050565b611df081611ddd565b82525050565b6000602082019050611e0b6000830184611de7565b92915050565b6000604051905090565b600080fd5b600080fd5b60007fffffffff0000000000000000000000000000000000000000000000000000000082169050919050565b611e5a81611e25565b8114611e6557600080fd5b50565b600081359050611e7781611e51565b92915050565b600060208284031215611e9357611e92611e1b565b5b6000611ea184828501611e68565b91505092915050565b60008115159050919050565b611ebf81611eaa565b82525050565b6000602082019050611eda6000830184611eb6565b92915050565b600081519050919050565b600082825260208201905092915050565b60005b83811015611f1a578082015181840152602081019050611eff565b60008484015250505050565b6000601f19601f8301169050919050565b6000611f4282611ee0565b611f4c8185611eeb565b9350611f5c818560208601611efc565b611f6581611f26565b840191505092915050565b60006020820190508181036000830152611f8a8184611f37565b905092915050565b611f9b81611ddd565b8114611fa657600080fd5b50565b600081359050611fb881611f92565b92915050565b600060208284031215611fd457611fd3611e1b565b5b6000611fe284828501611fa9565b91505092915050565b600073ffffffffffffffffffffffffffffffffffffffff82169050919050565b600061201682611feb565b9050919050565b6120268161200b565b82525050565b6000602082019050612041600083018461201d565b92915050565b6120508161200b565b811461205b57600080fd5b50565b60008135905061206d81612047565b92915050565b6000806040838503121561208a57612089611e1b565b5b60006120988582860161205e565b92505060206120a985828601611fa9565b9150509250929050565b6000806000606084860312156120cc576120cb611e1b565b5b60006120da8682870161205e565b93505060206120eb8682870161205e565b92505060406120fc86828701611fa9565b9150509250925092565b60006020828403121561211c5761211b611e1b565b5b600061212a8482850161205e565b91505092915050565b61213c81611eaa565b811461214757600080fd5b50565b60008135905061215981612133565b92915050565b6000806040838503121561217657612175611e1b565b5b60006121848582860161205e565b92505060206121958582860161214a565b9150509250929050565b600080fd5b600080fd5b7f4e487b7100000000000000000000000000000000000000000000000000000000600052604160045260246000fd5b6121e182611f26565b810181811067ffffffffffffffff82111715612200576121ff6121a9565b5b80604052505050565b6000612213611e11565b905061221f82826121d8565b919050565b600067ffffffffffffffff82111561223f5761223e6121a9565b5b61224882611f26565b9050602081019050919050565b82818337600083830152505050565b600061227761227284612224565b612209565b905082815260208101848484011115612293576122926121a4565b5b61229e848285612255565b509392505050565b600082601f8301126122bb576122ba61219f565b5b81356122cb848260208601612264565b91505092915050565b600080600080608085870312156122ee576122ed611e1b565b5b60006122fc8782880161205e565b945050602061230d8782880161205e565b935050604061231e87828801611fa9565b925050606085013567ffffffffffffffff81111561233f5761233e611e20565b5b61234b878288016122a6565b91505092959194509250565b6000806040838503121561236e5761236d611e1b565b5b600061237c8582860161205e565b925050602061238d8582860161205e565b9150509250929050565b7f4e487b7100000000000000000000000000000000000000000000000000000000600052602260045260246000fd5b600060028204905060018216806123de57607f821691505b6020821081036123f1576123f0612397565b5b50919050565b7f4552433732313a20617070726f76616c20746f2063757272656e74206f776e6560008201527f7200000000000000000000000000000000000000000000000000000000000000602082015250565b6000612453602183611eeb565b915061245e826123f7565b604082019050919050565b6000602082019050818103600083015261248281612446565b9050919050565b7f4552433732313a20617070726f76652063616c6c6572206973206e6f7420746f60008201527f6b656e206f776e6572206f7220617070726f76656420666f7220616c6c000000602082015250565b60006124e5603d83611eeb565b91506124f082612489565b604082019050919050565b60006020820190508181036000830152612514816124d8565b9050919050565b7f4552433732313a2063616c6c6572206973206e6f7420746f6b656e206f776e6560008201527f72206f7220617070726f76656400000000000000000000000000000000000000602082015250565b6000612577602d83611eeb565b91506125828261251b565b604082019050919050565b600060208201905081810360008301526125a68161256a565b9050919050565b7f41646472657373206973206e6f7420746865206f776e65720000000000000000600082015250565b60006125e3601883611eeb565b91506125ee826125ad565b602082019050919050565b60006020820190508181036000830152612612816125d6565b9050919050565b7f56616c756520686967686572207468616e2062616c616e63652e000000000000600082015250565b600061264f601a83611eeb565b915061265a82612619565b602082019050919050565b6000602082019050818103600083015261267e81612642565b9050919050565b600081905092915050565b50565b60006126a0600083612685565b91506126ab82612690565b600082019050919050565b60006126c182612693565b9150819050919050565b7f54686572652077617320616e206572726f722100000000000000000000000000600082015250565b6000612701601383611eeb565b915061270c826126cb565b602082019050919050565b60006020820190508181036000830152612730816126f4565b9050919050565b7f4552433732313a20696e76616c696420746f6b656e2049440000000000000000600082015250565b600061276d601883611eeb565b915061277882612737565b602082019050919050565b6000602082019050818103600083015261279c81612760565b9050919050565b7f4552433732313a2061646472657373207a65726f206973206e6f74206120766160008201527f6c6964206f776e65720000000000000000000000000000000000000000000000602082015250565b60006127ff602983611eeb565b915061280a826127a3565b604082019050919050565b6000602082019050818103600083015261282e816127f2565b9050919050565b600081905092915050565b600061284b82611ee0565b6128558185612835565b9350612865818560208601611efc565b80840191505092915050565b600061287d8285612840565b91506128898284612840565b91508190509392505050565b6000815190506128a481611f92565b92915050565b6000602082840312156128c0576128bf611e1b565b5b60006128ce84828501612895565b91505092915050565b7f416c7265616479206d696e74656420746f20796f75722077616c6c6574000000600082015250565b600061290d601d83611eeb565b9150612918826128d7565b602082019050919050565b6000602082019050818103600083015261293c81612900565b9050919050565b7f4e6f206d6f7265204e4654732063616e206265206d696e746564000000000000600082015250565b6000612979601a83611eeb565b915061298482612943565b602082019050919050565b600060208201905081810360008301526129a88161296c565b9050919050565b60006060820190506129c46000830186611de7565b6129d1602083018561201d565b6129de6040830184611de7565b949350505050565b7f4552433732313a207472616e736665722066726f6d20696e636f72726563742060008201527f6f776e6572000000000000000000000000000000000000000000000000000000602082015250565b6000612a42602583611eeb565b9150612a4d826129e6565b604082019050919050565b60006020820190508181036000830152612a7181612a35565b9050919050565b7f4552433732313a207472616e7366657220746f20746865207a65726f2061646460008201527f7265737300000000000000000000000000000000000000000000000000000000602082015250565b6000612ad4602483611eeb565b9150612adf82612a78565b604082019050919050565b60006020820190508181036000830152612b0381612ac7565b9050919050565b7f4552433732313a20617070726f766520746f2063616c6c657200000000000000600082015250565b6000612b40601983611eeb565b9150612b4b82612b0a565b602082019050919050565b60006020820190508181036000830152612b6f81612b33565b9050919050565b7f4552433732313a207472616e7366657220746f206e6f6e20455243373231526560008201527f63656976657220696d706c656d656e7465720000000000000000000000000000602082015250565b6000612bd2603283611eeb565b9150612bdd82612b76565b604082019050919050565b60006020820190508181036000830152612c0181612bc5565b9050919050565b7f4552433732313a206d696e7420746f20746865207a65726f2061646472657373600082015250565b6000612c3e602083611eeb565b9150612c4982612c08565b602082019050919050565b60006020820190508181036000830152612c6d81612c31565b9050919050565b7f4552433732313a20746f6b656e20616c7265616479206d696e74656400000000600082015250565b6000612caa601c83611eeb565b9150612cb582612c74565b602082019050919050565b60006020820190508181036000830152612cd981612c9d565b9050919050565b7f45524337323155524953746f726167653a2055524920736574206f66206e6f6e60008201527f6578697374656e7420746f6b656e000000000000000000000000000000000000602082015250565b6000612d3c602e83611eeb565b9150612d4782612ce0565b604082019050919050565b60006020820190508181036000830152612d6b81612d2f565b9050919050565b60008190508160005260206000209050919050565b60006020601f8301049050919050565b600082821b905092915050565b600060088302612dd47fffffffffffffffffffffffffffffffffffffffffffffffffffffffffffffffff82612d97565b612dde8683612d97565b95508019841693508086168417925050509392505050565b6000819050919050565b6000612e1b612e16612e1184611ddd565b612df6565b611ddd565b9050919050565b6000819050919050565b612e3583612e00565b612e49612e4182612e22565b848454612da4565b825550505050565b600090565b612e5e612e51565b612e69818484612e2c565b505050565b5b81811015612e8d57612e82600082612e56565b600181019050612e6f565b5050565b601f821115612ed257612ea381612d72565b612eac84612d87565b81016020851015612ebb578190505b612ecf612ec785612d87565b830182612e6e565b50505b505050565b600082821c905092915050565b6000612ef560001984600802612ed7565b1980831691505092915050565b6000612f0e8383612ee4565b9150826002028217905092915050565b612f2782611ee0565b67ffffffffffffffff811115612f4057612f3f6121a9565b5b612f4a82546123c6565b612f55828285612e91565b600060209050601f831160018114612f885760008415612f76578287015190505b612f808582612f02565b865550612fe8565b601f198416612f9686612d72565b60005b82811015612fbe57848901518255600182019150602085019450602081019050612f99565b86831015612fdb5784890151612fd7601f891682612ee4565b8355505b6001600288020188555050505b505050505050565b600081519050919050565b600082825260208201905092915050565b600061301782612ff0565b6130218185612ffb565b9350613031818560208601611efc565b61303a81611f26565b840191505092915050565b600060808201905061305a600083018761201d565b613067602083018661201d565b6130746040830185611de7565b8181036060830152613086818461300c565b905095945050505050565b6000815190506130a081611e51565b92915050565b6000602082840312156130bc576130bb611e1b565b5b60006130ca84828501613091565b91505092915050565b7f4e487b7100000000000000000000000000000000000000000000000000000000600052601260045260246000fdfe68747470733a2f2f6b657a617979612e696e667572612d697066732e696f2f697066732f516d5144577975394d79726d61696e35576a645035726b7556516253337251546454547242754c65755957536844a264697066735822122060cdc8ef90133a78e43cd804b63c142176c8bf6a60b71bb2888649eb72b0981a64736f6c63430008140033",
  "linkReferences": {},
  "deployedLinkReferences": {}
}